:020000040800F2
:10000000000002207DB200080D2300081B23000819
:1000100021230008272300082D23000800000000EA
:100020000000000000000000000000003323000872
:1000300041230008000000004F2300085D23000852
:10004000CDB20008CDB20008CDB20008CDB2000894
:10005000CDB20008CDB20008CDB20008CDB2000884
:10006000CDB20008CDB20008CDB20008CDB2000874
:10007000CDB20008CDB20008CDB20008CDB2000864
:10008000CDB20008CDB20008CDB20008CDB2000854
:1000900069230008CDB20008CDB20008CDB2000837
:1000A000CDB20008AD250008CDB20008CDB20008E1
:1000B000F9250008CDB20008CDB20008CDB2000885
:1000C000CDB20008CDB20008CDB20008CDB2000814
:1000D000CDB20008CDB200080D260008CDB2000850
:1000E000CDB20008CDB20008CDB20008CDB20008F4
:1000F000CDB20008CDB20008CDB20008CDB20008E4
:10010000CDB20008CDB20008CDB20008CDB20008D3
:10011000CDB20008CDB20008CDB20008CDB20008C3
:10012000CDB20008CDB20008CDB20008CDB20008B3
:10013000CDB200080000000000000000CDB20008B1
:10014000CDB20008CDB20008CDB20008CDB2000893
:10015000CDB20008CDB20008CDB20008CDB2000883
:10016000CDB20008CDB20008CDB20008CDB2000873
:10017000CDB20008CDB20008CDB2000800000000EA
:1001800000000000CDB200080000000000000000E8
:10019000CDB200080000000000000000CDB2000851
:1001A000000000000000000000000000CDB20008C8
:1001B000CDB20008CDB20008CDB20008CDB2000823
:0401C000CDB20008B4
:1001D00010B5054C237833B9044B13B10448AFF381
:1001E00000800123237010BD2002002000000000C9
:1001F0006001010808B5034B1BB103490348AFF385
:10020000008008BD000000002402002060010108F9
:10021000034613F8012B002AFBD1181A0138704746
:1002200001F0FF01102A2BDB10F0070F08D010F8A7
:10023000013B013A8B422DD010F0070F42B3F6D1AB
:10024000F0B441EA012141EA014122F007047FF0C4
:1002500000070023F0E80256083C85EA010586EA1B
:10026000010685FA47F5A3FA87F586FA47F6A5FA57
:1002700087F68EB9EED1F0BC01F0FF0102F0070263
:1002800032B110F8013B013A83EA010313B1F8D10E
:100290000020704701387047002D06BF35460338EF
:1002A000073815F0010F07D1013015F4807F02BF28
:1002B000013015F4C03F0130F0BC0138704700BF79
:1002C00081F0004102E000BF83F0004330B54FEA07
:1002D00041044FEA430594EA050F08BF90EA020F74
:1002E0001FBF54EA000C55EA020C7FEA645C7FEA07
:1002F000655C00F0E2804FEA5454D4EB5555B8BF2A
:100300006D420CDD2C4480EA020281EA030382EA9A
:10031000000083EA010180EA020281EA0303362D2C
:1003200088BF30BD11F0004F4FEA01314FF4801CFF
:100330004CEA113102D0404261EB410113F0004F11
:100340004FEA03334CEA133302D0524263EB4303C8
:1003500094EA050F00F0A780A4F10104D5F1200E66
:100360000DDB02FA0EFC22FA05F2801841F10001C1
:1003700003FA0EF2801843FA05F359410EE0A5F195
:1003800020050EF1200E012A03FA0EFC28BF4CF0C6
:10039000020C43FA05F3C01851EBE37101F000457C
:1003A00007D54FF0000EDCF1000C7EEB00006EEB89
:1003B0000101B1F5801F1BD3B1F5001F0CD3490813
:1003C0005FEA30004FEA3C0C04F101044FEA44526A
:1003D00012F5800F80F09A80BCF1004F08BF5FEAF1
:1003E000500C50F1000041EB045141EA050130BDD1
:1003F0005FEA4C0C404141EB0101013C28BFB1F5E3
:10040000801FE9D291F0000F04BF01460020B1FA2D
:1004100081F308BF2033A3F10B03B3F120020CDA00
:100420000C3208DD02F1140CC2F10C0201FA0CF0DE
:1004300021FA02F10CE002F11402D8BFC2F1200C43
:1004400001FA02F120FA0CFCDCBF41EA0C019040F9
:10045000E41AA2BF01EB0451294330BD6FEA040442
:100460001F3C1CDA0C340EDC04F11404C4F120022D
:1004700020FA04F001FA02F340EA030021FA04F33F
:1004800045EA030130BDC4F10C04C4F1200220FA96
:1004900002F001FA04F340EA0300294630BD21FAD4
:1004A00004F0294630BD94F0000F83F4801306BF9A
:1004B00081F480110134013D4EE77FEA645C18BF8E
:1004C0007FEA655C29D094EA050F08BF90EA020F25
:1004D00005D054EA000C04BF1946104630BD91EA1D
:1004E000030F1EBF0021002030BD5FEA545C05D120
:1004F0004000494128BF41F0004130BD14F580045F
:100500003CBF01F5801130BD01F0004545F0FE41D2
:1005100041F470014FF0000030BD7FEA645C1ABF07
:10052000194610467FEA655C1CBF0B46024650EA3E
:10053000013406BF52EA033591EA030F41F400216A
:1005400030BD00BF90F0000F04BF0021704730B5F0
:100550004FF4806404F132044FF000054FF00001C5
:1005600050E700BF90F0000F04BF0021704730B586
:100570004FF4806404F1320410F0004548BF40425B
:100580004FF000013EE700BF42004FEAE2014FEAB0
:1005900031014FEA02701FBF12F07F4393F07F4F8B
:1005A00081F06051704732F07F4208BF704793F08E
:1005B0007F4F04BF41F40021704730B54FF46074A1
:1005C00001F0004521F000411CE700BF50EA0102A4
:1005D00008BF704730B54FF000050AE050EA01024D
:1005E00008BF704730B511F0004502D5404261EBBD
:1005F00041014FF4806404F132045FEA915C3FF4FE
:10060000D8AE4FF003025FEADC0C18BF03325FEA9A
:10061000DC0C18BF033202EBDC02C2F1200300FA4B
:1006200003FC20FA02F001FA03FE40EA0E0021FA70
:1006300002F11444BDE600BF70B54FF0FF0C4CF45E
:10064000E06C1CEA11541DBF1CEA135594EA0C0F10
:1006500095EA0C0F00F0DEF82C4481EA030621EA4B
:100660004C5123EA4C5350EA013518BF52EA033586
:1006700041F4801143F4801338D0A0FB02CE4FF038
:100680000005E1FB02E506F00042E0FB03E54FF068
:100690000006E1FB03569CF0000F18BF4EF0010E60
:1006A000A4F1FF04B6F5007F64F5407404D25FEA5C
:1006B0004E0E6D4146EB060642EAC62141EA55510F
:1006C0004FEAC52040EA5E504FEACE2EB4F1FD0C51
:1006D00088BFBCF5E06F1ED8BEF1004F08BF5FEACF
:1006E000500E50F1000041EB045170BD06F0004681
:1006F00046EA010140EA020081EA0301B4EB5C042E
:10070000C2BFD4EB0C0541EA045170BD41F4801125
:100710004FF0000E013C00F3AB8014F1360FDEBF4A
:10072000002001F0004170BDC4F10004203C35DA26
:100730000C341BDC04F11404C4F1200500FA05F3A9
:1007400020FA04F001FA05F240EA020001F000424A
:1007500021F0004110EBD37021FA04F642EB0601C0
:100760005EEA430E08BF20EAD37070BDC4F10C04EA
:10077000C4F1200500FA04F320FA05F001FA04F2AE
:1007800040EA020001F0004110EBD37041F100019A
:100790005EEA430E08BF20EAD37070BDC4F12005A5
:1007A00000FA05F24EEA020E20FA04F301FA05F20D
:1007B00043EA020321FA04F001F0004121FA04F2B5
:1007C00020EA020000EBD3705EEA430E08BF20EA85
:1007D000D37070BD94F0000F0FD101F000464000BF
:1007E00041EB010111F4801F08BF013CF7D041EA41
:1007F000060195F0000F18BF704703F00046520045
:1008000043EB030313F4801F08BF013DF7D043EA15
:100810000603704794EA0C0F0CEA135518BF95EACB
:100820000C0F0CD050EA410618BF52EA4306D1D152
:1008300081EA030101F000414FF0000070BD50EA71
:10084000410606BF1046194652EA430619D094EAFB
:100850000C0F02D150EA013613D195EA0C0F05D1E5
:1008600052EA03361CBF104619460AD181EA030139
:1008700001F0004141F0FE4141F470014FF00000F1
:1008800070BD41F0FE4141F4780170BD70B54FF08C
:10089000FF0C4CF4E06C1CEA11541DBF1CEA13550C
:1008A00094EA0C0F95EA0C0F00F0A7F8A4EB0504EE
:1008B00081EA030E52EA03354FEA013100F08880E5
:1008C0004FEA03334FF0805545EA131343EA1263AE
:1008D0004FEA022245EA111545EA10654FEA002663
:1008E0000EF000419D4208BF964244F1FD0404F51C
:1008F000407402D25B084FEA3202B61A65EB030578
:100900005B084FEA32024FF480104FF4002CB6EB34
:10091000020E75EB030E22BFB61A754640EA0C00B4
:100920005B084FEA3202B6EB020E75EB030E22BFF4
:10093000B61A754640EA5C005B084FEA3202B6EB35
:10094000020E75EB030E22BFB61A754640EA9C00F4
:100950005B084FEA3202B6EB020E75EB030E22BFC4
:10096000B61A754640EADC0055EA060E18D04FEA82
:10097000051545EA16754FEA06164FEAC30343EA22
:1009800052734FEAC2025FEA1C1CC0D111F4801FEF
:100990000BD141EA00014FF000004FF0004CB6E7E8
:1009A00011F4801F04BF01430020B4F1FD0C88BF87
:1009B000BCF5E06F3FF6AFAEB5EB030C04BFB6EB92
:1009C000020C5FEA500C50F1000041EB045170BD85
:1009D0000EF0004E4EEA113114EB5C04C2BFD4EBB2
:1009E0000C0541EA045170BD41F480114FF0000E36
:1009F000013C90E645EA060E8DE60CEA135594EAB2
:100A00000C0F08BF95EA0C0F3FF43BAF94EA0C0FB4
:100A10000AD150EA01347FF434AF95EA0C0F7FF429
:100A200025AF104619462CE795EA0C0F06D152EA7D
:100A300003353FF4FDAE1046194622E750EA410661
:100A400018BF52EA43067FF4C5AE50EA41047FF472
:100A50000DAF52EA43057FF4EBAE12E74FF0FF3CD7
:100A600006E000BF4FF0010C02E000BF4FF0010CA8
:100A70004DF804CD4FEA410C7FEA6C5C4FEA430C21
:100A800018BF7FEA6C5C1BD001B050EA410C0CBF70
:100A900052EA430C91EA030F02BF90EA020F0020D2
:100AA000704710F1000F91EA030F58BF994208BF39
:100AB00090422CBFD8176FEAE37040F001007047F6
:100AC0004FEA410C7FEA6C5C02D150EA013C07D14D
:100AD0004FEA430C7FEA6C5CD6D152EA033CD3D098
:100AE0005DF8040B704700BF8446104662468C4692
:100AF0001946634600E000BF01B5FFF7B7FF0028C5
:100B000048BF10F1000F01BD4DF808EDFFF7F4FFED
:100B10000CBF012000205DF808FB00BF4DF808ED78
:100B2000FFF7EAFF34BF012000205DF808FB00BF9B
:100B30004DF808EDFFF7E0FF94BF012000205DF8BD
:100B400008FB00BF4DF808EDFFF7CEFF94BF012072
:100B500000205DF808FB00BF4DF808EDFFF7C4FF6B
:100B600034BF012000205DF808FB00BF4FEA410CB4
:100B70007FEA6C5C02D150EA013C0AD14FEA430C97
:100B80007FEA6C5C02D152EA033C02D14FF00000D4
:100B900070474FF0010070474FEA410212F5001212
:100BA00015D211D56FF47873B3EB625212D94FEAB4
:100BB000C12343F0004343EA505311F0004F23FA9E
:100BC00002F018BF404270474FF00000704750EAF3
:100BD000013005D111F0004008BF6FF000407047B0
:100BE0004FF00000704700BF4A0011D212F500120A
:100BF00011D20DD56FF47873B3EB62520ED44FEA75
:100C0000C12343F0004343EA505323FA02F07047F4
:100C10004FF00000704750EA013002D14FF0FF3032
:100C200070474FF0000070474FEA4102B2F1E043D5
:100C300024BFB3F5001CDCF1FE5C0DD901F0004CC3
:100C40004FEAC0024CEA5070B2F1004F40EB830013
:100C500008BF20F00100704711F0804F21D113F13F
:100C60003872BCBF01F00040704741F480114FEA78
:100C70005252C2F11802C2F1200C10FA0CF320FA01
:100C800002F018BF40F001004FEAC1234FEAD3231E
:100C900003FA0CFC40EA0C0023FA02F34FEA430388
:100CA000CCE77FEA625307D150EA01331EBF4FF011
:100CB000FE4040F44000704701F0004040F0FE402C
:100CC00040F40000704700BF53B94AB9002908BF7B
:100CD00000281CBF4FF0FF314FF0FF3000F0AAB9E1
:100CE000ADF1080C6DE904CE00F03CF8DDF804E04D
:100CF000DDE9022304B0704738B500220023044622
:100D00000D46FFF70BFF28B920462946BDE83840BD
:100D100000F00AB8204605F1004100F005F8404215
:100D200061EB410138BD00BFD0B50C4B0022064637
:100D30000F46FFF781FCFFF757FF0446FFF702FC61
:100D4000074B0022FFF778FC02460B463046394637
:100D5000FFF7BAFAFFF748FF2146D0BD0000F03D8B
:100D60000000F0412DE9F047089D04468E46002B17
:100D70004DD18A42944669D9B2FA82F252B101FA4F
:100D800002F3C2F1200120FA01F10CFA02FC41EA5F
:100D9000030E94404FEA1C48210CBEFBF8F61FFAE4
:100DA0008CF708FB16E341EA034306FB07F199427F
:100DB0000AD91CEB030306F1FF3080F01F81994232
:100DC00040F21C81023E63445B1AA4B2B3FBF8F00C
:100DD00008FB103344EA034400FB07F7A7420AD993
:100DE0001CEB040400F1FF3380F00A81A74240F2BB
:100DF00007816444023840EA0640E41B00261DB126
:100E0000D4400023C5E900433146BDE8F0878B425A
:100E100009D9002D00F0EF800026C5E90001304619
:100E20003146BDE8F087B3FA83F6002E4AD18B42F3
:100E300002D3824200F2F980841A61EB030301209D
:100E40009E46002DE0D0C5E9004EDDE702B9FFDE89
:100E5000B2FA82F2002A40F09280A1EB0C014FEA34
:100E60001C471FFA8CFE0126200CB1FBF7F307FB91
:100E7000131140EA01410EFB03F0884208D91CEB34
:100E8000010103F1FF3802D2884200F2CB804346D1
:100E9000091AA4B2B1FBF7F007FB101144EA0144B0
:100EA0000EFB00FEA64508D91CEB040400F1FF313F
:100EB00002D2A64500F2BB800846A4EB0E0440EA2D
:100EC00003409CE7C6F12007B34022FA07FC4CEA36
:100ED000030C20FA07F401FA06F31C43F9404FEA29
:100EE0001C4900FA06F3B1FBF9F8200C1FFA8CFE3E
:100EF00009FB181140EA014108FB0EF0884202FA92
:100F000006F20BD91CEB010108F1FF3A80F0888052
:100F1000884240F28580A8F102086144091AA4B20F
:100F2000B1FBF9F009FB101144EA014100FB0EFE90
:100F30008E4508D91CEB010100F1FF346CD28E45BF
:100F40006AD90238614440EA0840A0FB0294A1EB50
:100F50000E01A142C846A64656D353D05DB1B3EBAD
:100F6000080261EB0E0101FA07F722FA06F3F140DD
:100F70001F43C5E9007100263146BDE8F087C2F184
:100F80002003D8400CFA02FC21FA03F391400143FC
:100F90004FEA1C471FFA8CFEB3FBF7F007FB103635
:100FA0000B0C43EA064300FB0EF69E4204FA02F4E1
:100FB00008D91CEB030300F1FF382FD29E422DD934
:100FC000023863449B1B89B2B3FBF7F607FB163369
:100FD00041EA034106FB0EF38B4208D91CEB0101E9
:100FE00006F1FF3816D28B4214D9023E6144C91A69
:100FF00046EA004638E72E46284605E70646E3E679
:101000001846F8E64B45A9D2B9EB020864EB0C0E82
:101010000138A3E74646EAE7204694E74046D1E791
:10102000D0467BE7023B614432E7304609E764443F
:10103000023842E7704700BF80B58AB008AF03F0BE
:1010400003FA00F0B5FA00F02DFB01F039F800F0DA
:10105000A1FE00F0ABFB00F0AFFD00F0E5FD09F0F4
:1010600069FF09F0D1FF0AF019F800F04DFF0621E1
:10107000AD4809F0C5FCAC4B1A6900920FCB09F0E2
:1010800029FDAA4B5B69B3F1FF3F02D1A74B0022B8
:101090005A61A64B1B69B3F1FF3F02D1A34B00225B
:1010A0001A61A34BD3ED027AF4EE677AF1EE10FAEF
:1010B00009D69F4BD3ED027ABFEE007AF4EE477A61
:1010C000F1EE10FA02D19A4B9A4A9A60984BD3EDFE
:1010D000037AF4EE677AF1EE10FA09D6944BD3ED69
:1010E000037ABFEE007AF4EE477AF1EE10FA02D1FD
:1010F0008F4B914ADA608E4BD3ED067AF4EE677A25
:10110000F1EE10FA09D68A4BD3ED067ABFEE007ADB
:10111000F4EE477AF1EE10FA03D1854B4FF000025E
:101120009A61824B5B68B3F1FF3F02D17F4B012292
:101130005A607E4B9B68B3F1FF3F02D17B4B00228C
:101140009A607A4BDB68B3F1FF3F02D1774B002204
:10115000DA60774BD3ED077AF4EE677AF1EE10FAA6
:1011600009D6734BD3ED077ABFEE007AF4EE477AD7
:10117000F1EE10FA03D16E4B4FF00002DA616C4BC6
:10118000D3ED087AF4EE677AF1EE10FA09D6684BDF
:10119000D3ED087ABFEE007AF4EE477AF1EE10FA5A
:1011A00002D1634B654A1A62614BD3ED097AF4EEC2
:1011B000677AF1EE10FA09D65D4BD3ED097ABFEEEE
:1011C000007AF4EE477AF1EE10FA02D1584B5C4AFD
:1011D0005A62574BD3ED127AF4EE677AF1EE10FAB9
:1011E00009D6534BD3ED127ABFEE007AF4EE477A6C
:1011F000F1EE10FA02D14E4B524A9A644C4BD3EDA9
:101200000A7AF4EE677AF1EE10FA09D6484BD3ED7C
:101210000A7ABFEE007AF4EE477AF1EE10FA02D1C4
:10122000434B494A9A62424BD3ED117AF4EE677A06
:10123000F1EE10FA09D63E4BD3ED117ABFEE007AEB
:10124000F4EE477AF1EE10FA03D1394B4FF07E52AB
:101250005A64374BD3ED0E7AF4EE677AF1EE10FA5A
:1012600009D6334BD3ED0E7ABFEE007AF4EE477A0F
:10127000F1EE10FA03D12E4B4FF07E529A632C4BB5
:10128000D3ED177AF4EE677AF1EE10FA09D6284B0F
:10129000D3ED177ABFEE007AF4EE477AF1EE10FA4A
:1012A00002D1234B294ADA65214BD3ED187AF4EEAB
:1012B000677AF1EE10FA09D61D4BD3ED187ABFEE1E
:1012C000007AF4EE477AF1EE10FA02D1184B1D4A7B
:1012D0001A66174BD3ED147AF4EE677AF1EE10FA32
:1012E00002D7134B1A4A1A65114BD3ED137AF4EE59
:1012F000677AF1EE10FA02D70D4B164ADA640C4BFE
:10130000D3ED167AF4EE677AF1EE10FA02D7084BB5
:10131000114A9A65064BD3ED157AF4EE677AF1EE31
:1013200010FA1ED71AE000BF3C0700203C03002043
:101330003C02002000007A44000020420000FA42F3
:10134000000060410000A0400000A8410000FA43F6
:1013500000004841000048C1000082427E4B7F4AA5
:101360005A654FF000024FF080437D480AF060FC60
:101370007C4807F035FC4FF4387200217A4809F0B8
:10138000E5FF7A4B1B697A4AC2F8D430774B5B6928
:10139000774AC2F8D830704B9B6A754A9366744B93
:1013A000724ADC3302F118014FF40072184609F05A
:1013B000BFFF64216E4809F011F96E4801F0DCFAB4
:1013C0006D4801F0D9FA6D4801F0D6FA01221021DA
:1013D0006B4802F02BFE01224FF40061684802F0D6
:1013E00025FE012003F0A2F8012003F09FF86549D3
:1013F0000123069300230593002304930023039302
:101400000023029301230193002300930023002271
:1014100003C906F032FF012003F088F84E4BD3EDEC
:10142000037A9FED597AF4EEC77AF1EE10FA02D8FA
:1014300003237B6001E002237B6052490023069373
:1014400001230593012304930123039300230293B3
:1014500003230193002300930123002203C906F014
:101460007CFF012003F062F8464900230693002325
:1014700005930023049300230393012302937B68C5
:101480000193002300930123002203C906F065FFA6
:10149000012003F04BF8334807F05EFB012003F016
:1014A00045F8384905230293032301930123009350
:1014B0000023012203C906F022FF012003F036F8C1
:1014C000304B93E8030006F0A4FF012003F02EF850
:1014D000244BD3F89C30234AD2F8A02019462B483D
:1014E0000AF0A6FB00212A4804F0B8FA0421284893
:1014F00004F0B4FA0821264804F0B0FA254800F0B8
:10150000DBF9254800F006FA244803F00FFA002220
:101510000021192002F061FF01220121142002F0B4
:101520005CFF1F4B00221A701D4B00225A701C4B8F
:101530000122DA7001221B491B4805F0DCFA14482D
:1015400004F0C2F9194804F0BFF9064800F056FE4D
:10155000052002F0EBFFF8E73C020020000082C209
:1015600078010108500700207C8F00203C030020F8
:10157000680A002088940020D0940020189500204C
:1015800000000240480D0020000020429C0101089C
:10159000A89300207C9200205C920020D092002032
:1015A000580A0020CC92002038940020F0930020AC
:1015B00080B594B000AF07F11C0334220021184617
:1015C00009F0C4FE07F1080300221A605A609A600D
:1015D000DA601A6100237B602C4B1B6C2B4A43F0B2
:1015E00080531364294B1B6C03F080537B607B6832
:1015F00000233B60264B1B68254A43F4404313609D
:10160000234B1B6803F440433B603B680123FB61B1
:101610004FF480333B6202237B634FF48003BB6350
:101620000423FB63B4233B6402237B640223BB6477
:101630000223FB6407F11C03184602F0C5F80346B9
:10164000002B01D000F026F802F09CFD0346002B91
:1016500001D000F01FF80F23BB600223FB600023C2
:101660003B614FF4A0537B614FF48053BB6107F1A2
:1016700008030521184601F05DFD0346002B01D04B
:1016800000F008F800BF5037BD4680BD003802406A
:101690000070004080B400AF00BFBD465DF8047B21
:1016A0007047000080B58AB000AF07F11403002234
:1016B0001A605A609A60DA601A6100233B61384B05
:1016C0001B6B374A43F004031363354B1B6B03F06A
:1016D00004033B613B690023FB60314B1B6B304AC9
:1016E00043F0800313632E4B1B6B03F08003FB60FE
:1016F000FB680023BB602A4B1B6B294A43F00103A4
:101700001363274B1B6B03F00103BB60BB68002313
:101710007B60234B1B6B224A43F002031363204B75
:101720001B6B03F002037B607B68002248F610010C
:101730001C4802F07BFC002220211B4802F076FCB2
:101740004FF400537B614FF40413BB610023FB6132
:1017500007F114031946144802F0D4FA48F61003AE
:101760007B610123BB610023FB6103233B6207F123
:10177000140319460B4802F0C5FA20237B610123AC
:10178000BB610023FB6103233B6207F1140319468D
:10179000054802F0B7FA00BF2837BD4680BD00BF3C
:1017A00000380240000002400008024080B500AF4F
:1017B000174B184A1A60164B03225A60144B00222A
:1017C0009A60134B0022DA60114B4FF430221A61F9
:1017D0000F4B4FF480125A610D4B00221A760C4BBE
:1017E00000225A760A4B00229A76094B0022DA76BA
:1017F000074B00221A77064B00225A77044802F062
:10180000B9FE0346002B01D0FFF744FF00BF80BDA7
:10181000D09200200064004080B58AB000AF7860AC
:1018200007F1140300221A605A609A60DA601A61A4
:101830007B681B681D4A934234D100233B611C4BDB
:101840001B6C1B4A43F000731364194B1B6C03F0B1
:1018500000733B613B690023FB60154B1B6B144A13
:1018600043F002031363124B1B6B03F00203FB6094
:10187000FB684FF440737B610223BB610023FB6173
:1018800003233B6209237B6207F1140319460948CD
:1018900002F038FA00220021142002F09EFD1420EC
:1018A00002F0B7FD00BF2837BD4680BD0064004090
:1018B000003802400004024080B582B000AF78607A
:1018C0007B6800229A63114B5B685B011A467B6858
:1018D0009A627B680022DA627B6840F6FF721A63C4
:1018E0007B6800225A637B6800221A647B680122AD
:1018F0005A647B6801229A647B682833194604483D
:1019000002F034FF00BF0837BD4680BD3C03002015
:10191000D092002080B483B000AF78607B6807224B
:101920009A617B6800221A617B6800225A61054B2C
:101930009B681A467B689A6000BF0C37BD465DF80D
:10194000047B70473C03002080B58AB000AF78610B
:101950000B4687ED030AC7ED020A87ED011AFB74F7
:1019600013463B82374BD3ED157A364B93ED167AFF
:101970000C20B0EE471AF0EE670A97ED030A08F064
:1019800076FD78622F4BD3ED037A9FED2F7A77EEB9
:10199000877AB1EE677A2B4BD3ED0E7A27EE277A52
:1019A000284BD3ED117A67EE276A264BD3ED037AE5
:1019B0009FED257A37EE877A224BD3ED0E7A27EE0C
:1019C000277A204BD3ED117A67EE277A0C20B0EE00
:1019D000671AF0EE660A97ED020A08F048FD3862D1
:1019E00008209FED1A1ADFED180A97ED010A08F09A
:1019F0003EFDF8617B69FA7C5A703B8A1B0A9BB2F8
:101A0000DAB27B699A703B8ADAB27B69DA707B6AF8
:101A10001B11DAB27B691A717B6A1B01DAB23B6A6D
:101A20001B12DBB21344DAB27B695A713B6ADAB239
:101A30007B699A71FB69DAB27B69DA7100BF28377A
:101A4000BD4680BD3C020020000000000000204296
:101A500084B090B587B000AF07F1280484E80F0088
:101A600097F829301B0297F82A2013437B6197F8D7
:101A70002B301B0197F82C201209D2B213433B6183
:101A800097F82C301B0203F4706397F82D20134352
:101A9000FB6097F82E301B0197F82F201209D2B265
:101AA0001343BB6097F82F301B0203F4706397F861
:101AB000302013437B603E4BD3ED137A3C4B93EDC8
:101AC000147A1021F0EE470AB0EE670A786908F040
:101AD00001FDF0EE407ABB6FC3ED007A344BD3EDDD
:101AE000157A334B93ED167ABB6F1C1D0C21F0EE6B
:101AF000470AB0EE670A386908F0ECFCF0EE407A6D
:101B0000C4ED007A2A4BD3ED177ABB6F03F10804BA
:101B10000C21F0EE670A9FED270AF86808F0DAFC5E
:101B2000F0EE407AC4ED007A214BD3ED187ABB6F0A
:101B300003F10C040C21F0EE670A9FED1E0AB86851
:101B400008F0C8FCF0EE407AC4ED007A184BD3EDF3
:101B5000037AB1EE677A164BD3ED0E7A27EE277A29
:101B6000134BD3ED117A67EE276A114B93ED037A8D
:101B70000F4BD3ED0E7A27EE277A0D4BD3ED117A6A
:101B800067EE277ABB6F03F110040C21F0EE670AB1
:101B9000B0EE660A786808F09DFCF0EE407AC4ED7D
:101BA000007A00BF1C37BD46BDE8904004B07047C6
:101BB0003C0200200000000080B500AF184B194A1D
:101BC0001A60174B4FF482725A60154B00229A60CC
:101BD000134B4FF40062DA60114B00221A61104B74
:101BE00001225A610E4B4FF400729A610C4B28226D
:101BF000DA610B4B00221A62094B00225A62084B31
:101C000000229A62064B0A22DA62054803F0FDFAC6
:101C10000346002B01D0FFF73DFD00BF80BD00BF94
:101C2000F89200200030014080B500AF184B194AEF
:101C30001A60174B4FF482725A60154B00229A605B
:101C4000134B4FF40062DA60114B00221A61104B03
:101C500000225A610E4B4FF400729A610C4B002225
:101C6000DA610B4B00221A62094B00225A62084BC0
:101C700000229A62064B0A22DA62054803F0C5FA8E
:101C80000346002B01D0FFF705FD00BF80BD00BF5C
:101C900050930020003C004080B58CB000AF7860CD
:101CA00007F11C0300221A605A609A60DA601A6118
:101CB0007B681B68324A93422CD10023BB61314BB5
:101CC0005B6C304A43F4805353642E4B5B6C03F4DB
:101CD0008053BB61BB6900237B612A4B1B6B294A84
:101CE00043F001031363274B1B6B03F001037B617C
:101CF0007B69E023FB6102233B6200237B620323B9
:101D0000BB620523FB6207F11C0319461E4801F064
:101D1000F9FF31E07B681B681C4A93422CD10023F9
:101D20003B61184B1B6C174A43F400431364154B7B
:101D30001B6C03F400433B613B690023FB60114BC8
:101D40001B6B104A43F0040313630E4B1B6B03F031
:101D50000403FB60FB684FF4E053FB6102233B622A
:101D600000237B620323BB620623FB6207F11C0393
:101D70001946074801F0C6FF00BF3037BD4680BD99
:101D8000003001400038024000000240003C0040AA
:101D90000008024080B596B000AF07F1480300226A
:101DA0001A605A609A60DA6007F1400300221A60F4
:101DB0005A6007F1240300221A605A609A60DA60C0
:101DC0001A615A619A613B1D20220021184609F0D0
:101DD000BDFA4B4B4B4A1A60494B00225A60484BA4
:101DE00020229A60464B40F6CA02DA60444B002239
:101DF0001A61434B01225A61414B80229A6140484B
:101E000003F012FD0346002B01D0FFF743FC4FF413
:101E10008053BB6407F148031946394804F098F829
:101E20000346002B01D0FFF735FC354803F0BCFD1D
:101E30000346002B01D0FFF72DFC00233B64002359
:101E40007B6407F1400319462D4804F097FC0346D4
:101E5000002B01D0FFF71EFC60237B620023BB62D6
:101E60000223FB6200233B6300237B630023BB63ED
:101E70000023FB6307F1240300221946204803F0E6
:101E8000A5FF0346002B01D0FFF704FC04237B636E
:101E900007F1240304221946194803F097FF03466B
:101EA000002B01D0FFF7F6FB07F1240308221946A7
:101EB000134803F08BFF0346002B01D0FFF7EAFB2A
:101EC00000237B600023BB600023FB6000233B6199
:101ED00000237B614FF40053BB6100233B623B1D39
:101EE0001946074804F0C6FC0346002B01D0FFF753
:101EF000D1FB034800F098F800BF5837BD4680BDBD
:101F0000A89300200000014080B586B000AF07F123
:101F1000080300221A605A609A60DA603B46002289
:101F20001A605A601D4B4FF080421A601B4B002212
:101F30005A601A4B20229A60184B40F6CA22DA6087
:101F4000164B00221A61154B00229A61134803F0C8
:101F50006BFC0346002B01D0FFF79CFB4FF4805332
:101F6000BB6007F1080319460C4803F0F1FF034674
:101F7000002B01D0FFF78EFB00233B6000237B602A
:101F80003B461946054804F0F9FB0346002B01D0F7
:101F9000FFF780FB00BF1837BD4680BDF0930020DF
:101FA00080B584B000AF78607B681B681C4A9342A0
:101FB00016D10023FB601B4B5B6C1A4A43F00103F4
:101FC0005364184B5B6C03F00103FB60FB68002259
:101FD0000021192002F001FA192002F01AFA1AE081
:101FE0007B681B68B3F1804F15D10023BB600D4B9C
:101FF0001B6C0C4A43F0010313640A4B1B6C03F087
:102000000103BB60BB68012200211C2002F0E5F93E
:102010001C2002F0FEF900BF1037BD4680BD00BF96
:10202000000001400038024080B588B000AF786001
:1020300007F10C0300221A605A609A60DA601A6194
:102040007B681B681B4A93422FD10023BB601A4B4D
:102050001B6B194A43F001031363174B1B6B03F00F
:102060000103BB60BB684FF48073FB6002233B61DC
:1020700000237B610023BB610123FB6107F10C039B
:1020800019460E4801F03EFE4FF4C063FB60022388
:102090003B6100237B610323BB610123FB6107F1EB
:1020A0000C031946054801F02DFE00BF2037BD4640
:1020B00080BD00BF00000140003802400000024027
:1020C00080B500AF114B124A1A60104B4FF46122D9
:1020D0005A600E4B00229A600C4B0022DA600B4BC8
:1020E00000221A61094B0C225A61084B00229A61A6
:1020F000064B0022DA61054804F022FC0346002B5F
:1021000001D0FFF7C7FA00BF80BD00BF38940020A0
:102110000044004080B58AB000AF786007F1140336
:1021200000221A605A609A60DA601A617B681B6844
:102130001D4A934233D100233B611C4B1B6C1B4A4D
:1021400043F400331364194B1B6C03F400333B61FD
:102150003B690023FB60154B1B6B144A43F00103E2
:102160001363124B1B6B03F00103FB60FB680C2332
:102170007B610223BB610023FB6103233B620723D6
:102180007B6207F114031946094801F0BBFD0122E7
:102190000021262002F021F9262002F03AF900BFA2
:1021A0002837BD4680BD00BF0044004000380240D3
:1021B0000000024080B582B000AF7860391D4FF654
:1021C000FF730122034804F00BFC00231846083774
:1021D000BD4680BD3894002080B582B000AF7860E5
:1021E00001220449044804F086FC00BF0837BD46BC
:1021F00080BD00BFCC920020389400202DE9B04F64
:10220000D8B00EAF07F59473A3F58673186007F581
:102210009473A3F586731B685B691846FEF7B4F9DF
:102220008046894607F59473A3F586731B689B69FE
:102230001846FEF7A9F982468B4607F59473A3F575
:1022400086731B68DB691846FEF79EF9C7E904012F
:1022500007F59473A3F586731B68DB6B1846FEF7CE
:1022600093F9C7E9020107F59473A3F586731B6818
:102270001B6C1846FEF788F9C7E9000107F594734F
:10228000A3F586731B68D3F8AC301846FEF77CF9CB
:1022900004460D4607F59473A3F586731B68D3F8BF
:1022A000B0301846FEF770F907F12403CDE90C01B0
:1022B000CDE90A4597ED007B8DED087B97ED027B1C
:1022C0008DED067B97ED047B8DED047BCDE902ABB4
:1022D000CDE900890B4A4FF48071184609F036FDAC
:1022E000C7F82401D7F824319AB207F124014FF03E
:1022F000FF33054804F074FB00BF07F59477BD4633
:10230000BDE8B08FC40101083894002080B400AF4C
:1023100000BFBD465DF8047B704780B400AFFEE7A8
:1023200080B400AFFEE780B400AFFEE780B400AF3A
:10233000FEE780B400AF00BFBD465DF8047B704788
:1023400080B400AF00BFBD465DF8047B704780B429
:1023500000AF00BFBD465DF8047B704780B500AF9D
:1023600002F0C4F800BF80BDF0B595B012AF82484E
:1023700002F012FD814B824A00217F4802F0EAFB05
:10238000804B5B68DBB2804A526F92B27E4991ED1E
:10239000187A7E49D1ED117AC7EE276A7C4991ED12
:1023A000117A7A49D1ED0E7A27EE277A7749D1ED65
:1023B000117A67EE277A764991ED097AB0EE471ADD
:1023C000F0EE670AB0EE660A19467248FFF7BCFAEB
:1023D0003B1D714A7149684802F0ECFA704B5A781B
:1023E0006F4B9B781340DAB26D4BDB781340DAB257
:1023F0006B4B1B791340DAB2694B5B791340DAB24D
:10240000674B9B791340DAB2654BDB791340DBB243
:10241000FF2B0CBF01230023DAB2614B1B7AFC2B8C
:102420000CBF01230023DBB21340DBB2002B04D02E
:102430006D215C4807F006FA99E0594B5A78584BE1
:102440009B781340DAB2564BDB781340DBB2FF2B9C
:102450000CBF01230023DBB21A46514B1B79FF2B23
:102460000CBF01230023DBB219464D4B5B79FF2BD8
:102470000CBF01230023DBB201FB03F31340484AE6
:102480009279FF2A0CBF01220022D2B21340444AA3
:10249000D279FF2A0CBF01220022D2B21340404A57
:1024A000127AFD2A0CBF01220022D2B21340002B67
:1024B00004D01B213B4807F0C5F958E0384B5A7847
:1024C000374B9B781340DAB2354BDB781340DBB2E5
:1024D000FF2B0CBF01230023DBB21A46304B1B79C4
:1024E000FF2B0CBF01230023DBB219462C4B5B7979
:1024F000FF2B0CBF01230023DBB201FB03F31340CE
:10250000274A9279FF2A0CBF01220022D2B213403F
:10251000234AD279FF2A0CBF01220022D2B21340F3
:102520001F4A127AFE2A0CBF01220022D2B21340A7
:10253000002B04D07A211B4807F084F917E0184ECD
:10254000194B10936D4606F110040FCC0FC50FCC3C
:102550000FC50FCC0FC594E80F0085E80F0096E873
:102560000F00FFF775FA0A4B0022C3F8C42000BF22
:102570000C37BD46F0BD00BFD09200207D920020F8
:10258000889200203C030020680A00203C020020C2
:10259000500700205C9200205D9200206492002091
:1025A0007C920020580A00202808002080B500AF47
:1025B0000C4806F093F89FED0C0A0C4808F046F81A
:1025C0000B4806F09BFF00F03DF8064BD3F8C030F7
:1025D0000133044AC2F8C030064803F007FB00BFCD
:1025E00080BD00BF5007002017B7D137680A002010
:1025F000580A0020A893002080B500AF024803F0DD
:10260000F5FA00BF80BD00BFF093002080B582B016
:1026100000AF094804F094FA084B1B78FB71FB7972
:102620001946074807F00EF9034804F089FA00BF7D
:102630000837BD4680BD00BF38940020CC920020F2
:10264000580A0020F0B595B012AF884B884A002197
:10265000884802F07FFA03467B607B68002B40F0DD
:102660000081854B5B68DBB2844A526F92B283492A
:1026700091ED187A8249D1ED117AC7EE276A814926
:1026800091ED147A7E49D1ED0E7A27EE277A7C49B6
:10269000D1ED117A27EE276A7A4991ED3B7A794993
:1026A000D1ED3C7A77EE677AB0EE671AF0EE460A23
:1026B000B0EE660A19467448FFF746F93B46734A7E
:1026C00073496C4802F076F9724B5A78714B9B78DB
:1026D0001340DAB26F4BDB781340DAB26D4B1B79E3
:1026E0001340DAB26B4B5B791340DAB2694B9B79DA
:1026F0001340DAB2674BDB791340DBB2FF2B0CBF20
:1027000001230023DAB2634B1B7AFC2B0CBF01239D
:102710000023DBB21340DBB2002B04D06D215E48F6
:1027200007F090F89DE05B4B5A785A4B9B7813402A
:10273000DAB2584BDB781340DBB2FF2B0CBF01231E
:102740000023DBB21A46534B1B79FF2B0CBF01232E
:102750000023DBB219464F4B5B79FF2B0CBF0123E3
:102760000023DBB201FB03F313404A4A9279FF2AAC
:102770000CBF01220022D2B21340464AD279FF2A6E
:102780000CBF01220022D2B21340424A127AFD2A23
:102790000CBF01220022D2B21340002B04D01B2117
:1027A0003D4807F04FF85CE03A4B5A78394B9B783C
:1027B0001340DAB2374BDB781340DBB2FF2B0CBF90
:1027C00001230023DBB21A46324B1B79FF2B0CBFCF
:1027D00001230023DBB219462E4B5B79FF2B0CBF84
:1027E00001230023DBB201FB03F31340294A927952
:1027F000FF2A0CBF01220022D2B21340254AD2790F
:10280000FF2A0CBF01220022D2B21340214A127AC1
:10281000FE2A0CBF01220022D2B21340002B04D0AA
:102820007A211D4807F00EF81BE01A4E1B4B10933F
:102830006D4606F110040FCC0FC50FCC0FC50FCCA1
:102840000FC594E80F0085E80F0096E80F00FFF72A
:10285000FFF80C4B0022C3F8C4200A4B1B6C094A3A
:10286000136500BF0C37BD46F0BD00BF7D92002050
:1028700088920020D09200203C030020680A0020AB
:102880003C020020500700205C9200205D92002056
:10289000649200207C920020580A00202808002022
:1028A00080B582B000AF00237B60104B5B6C0F4A99
:1028B00043F4804353640D4B5B6C03F480437B60B3
:1028C0007B6800233B60094B1B6C084A43F0805334
:1028D0001364064B1B6C03F080533B603B6807207E
:1028E00001F070FD00BF0837BD4680BD00380240D2
:1028F00080B584B000AF78600023FB737B68002B49
:1029000001D1012333E07B681B6C002B09D178686F
:1029100008F00EFC7B6800225A647B68002283F872
:102920003C207B681B6C03F01003002B18D17B68E4
:102930001B6C23F4885323F0020343F002027B68EC
:102940001A64786800F0B4FA7B6800225A647B68E5
:102950001B6C23F0030343F001027B681A6401E05F
:102960000123FB737B68002283F83C20FB7B184625
:102970001037BD4680BD000080B485B000AF7860E0
:102980000023BB607B6893F83C30012B01D102230C
:10299000B2E07B68012283F83C207B681B689B685F
:1029A00003F00103012B18D07B681B689A687B68D1
:1029B0001B6842F001029A60524B1B68524AA2FB0C
:1029C00003239A0C13465B001344BB6002E0BB6810
:1029D000013BBB60BB68002BF9D17B681B689B681F
:1029E00003F00103012B7AD17B681B6C23F4E063B5
:1029F00023F0010343F480727B681A647B681B68D0
:102A00005B6803F48063002B07D07B681B6C23F4A6
:102A1000405343F480527B681A647B681B6C03F458
:102A20008053B3F5805F06D17B685B6C23F00602B0
:102A30007B685A6402E07B6800225A647B6800224B
:102A400083F83C20314BFB607B681B686FF02202EF
:102A50001A60FB685B6803F01F03002B2AD17B68B8
:102A60001B682B4A934215D07B681B68294A934206
:102A700005D1264B5B6803F01F03002B0AD07B684F
:102A80001B68254A934236D1204B5B6803F0100344
:102A9000002B30D17B681B689B6803F04053002BF0
:102AA00029D17B681B689A687B681B6842F080426A
:102AB0009A6020E07B681B68154A93421BD17B68B3
:102AC0001B689B6803F04053002B14D17B681B6884
:102AD0009A687B681B6842F080429A600BE07B68D2
:102AE0001B6C43F010027B681A647B685B6C43F0DC
:102AF00001027B685A64002318461437BD465DF80E
:102B0000047B70470800002083DE1B430023014044
:102B100000200140002101400022014080B584B026
:102B200000AF786039600023FB607B681B689B689E
:102B300003F48063B3F5806F13D17B681B689B68D7
:102B400003F48073B3F5807F0BD17B681B6C43F07B
:102B500020027B681A647B68002283F83C200123F2
:102B600063E001F0D7FCF86021E03B68B3F1FF3F80
:102B70001DD03B68002B07D001F0CCFC0246FB685F
:102B8000D31A3A689A4212D27B681B681B6803F01A
:102B90000203022B0BD07B681B6C43F004027B68A2
:102BA0001A647B68002283F83C2003233DE07B68A5
:102BB0001B681B6803F00203022BD6D17B681B68DD
:102BC0006FF012021A607B681B6C43F400727B6822
:102BD0001A647B681B689B6803F04053002B23D169
:102BE0007B681B7E002B1FD17B681B68DB6A03F4AC
:102BF0007003002B06D07B681B689B6803F480631E
:102C0000002B11D17B681B6C23F480727B681A64E3
:102C10007B681B6C03F48053002B05D17B681B6C15
:102C200043F001027B681A64002318461037BD4642
:102C300080BD80B483B000AF78607B681B68DB6CBC
:102C400018460C37BD465DF8047B704780B485B0EC
:102C500000AF786039600023BB607B6893F83C303C
:102C6000012B01D1022313E17B68012283F83C2070
:102C70003B681B68092B25D97B681B68D9683B68B2
:102C80001B689BB21A4613465B0013441E3B072287
:102C900002FA03F3DA437B681B680A40DA607B6858
:102CA0001B68D9683B689A683B681B689BB21846EA
:102CB00003465B0003441E3B9A407B681B680A4343
:102CC000DA6022E07B681B6819693B681B689BB26D
:102CD0001A4613465B001344072202FA03F3DA4351
:102CE0007B681B680A401A617B681B6819693B682E
:102CF0009A683B681B689BB2184603465B00034416
:102D00009A407B681B680A431A613B685B68062B24
:102D100024D87B681B68596B3B685A6813469B0034
:102D20001344053B1F2202FA03F3DA437B681B6856
:102D30000A405A637B681B68596B3B681B689BB2EF
:102D400018463B685A6813469B001344053B00FA3B
:102D500003F27B681B680A435A634CE03B685B687C
:102D60000C2B24D87B681B68196B3B685A68134688
:102D70009B001344233B1F2202FA03F3DA437B68D0
:102D80001B680A401A637B681B68196B3B681B68E9
:102D90009BB218463B685A6813469B001344233B7A
:102DA00000FA03F27B681B680A431A6323E07B681E
:102DB0001B68D96A3B685A6813469B001344413B21
:102DC0001F2202FA03F3DA437B681B680A40DA62C7
:102DD0007B681B68D96A3B681B689BB218463B68D6
:102DE0005A6813469B001344413B00FA03F27B6888
:102DF0001B680A43DA62294BFB607B681B68284A20
:102E000093420FD13B681B68122B0BD1FB685B68A8
:102E100023F40002FB685A60FB685B6843F480029D
:102E2000FB685A607B681B681D4A93422BD13B6844
:102E30001B681C4A934203D03B681B68112B22D1AC
:102E4000FB685B6823F48002FB685A60FB685B6880
:102E500043F40002FB685A603B681B68114A9342C6
:102E600011D1114B1B68114AA2FB03239A0C134684
:102E70009B0013445B00BB6002E0BB68013BBB608E
:102E8000BB68002BF9D17B68002283F83C2000232B
:102E900018461437BD465DF8047B70470023014097
:102EA00000200140120000100800002083DE1B43B8
:102EB00080B485B000AF7860794BFB60FB685B68DD
:102EC00023F44032FB685A60FB685A687B685B6891
:102ED0001A43FB685A607B681B685A687B681B68EA
:102EE00022F480725A607B681B6859687B681B6992
:102EF0001A027B681B680A435A607B681B685A6821
:102F00007B681B6822F040725A607B681B685968B6
:102F10007B689A687B681B680A435A607B681B68F9
:102F20009A687B681B6822F400629A607B681B6861
:102F300099687B68DA687B681B680A439A607B68DB
:102F40009B6A584A934222D07B681B689A687B68C8
:102F50001B6822F070629A607B681B6899687B68C6
:102F60009A6A7B681B680A439A607B681B689A6848
:102F70007B681B6822F040529A607B681B689968E6
:102F80007B68DA6A7B681B680A439A600FE07B689B
:102F90001B689A687B681B6822F070629A607B6885
:102FA0001B689A687B681B6822F040529A607B68B5
:102FB0001B689A687B681B6822F002029A607B6833
:102FC0001B6899687B681B7E5A007B681B680A43F4
:102FD0009A607B6893F82030002B1BD07B681B68BD
:102FE0005A687B681B6842F400625A607B681B6801
:102FF0005A687B681B6822F460425A607B681B68D1
:1030000059687B685B6A013B5A037B681B680A430B
:103010005A6007E07B681B685A687B681B6822F46B
:1030200000625A607B681B68DA6A7B681B6822F45E
:103030007002DA627B681B68D96A7B68DB69013BD6
:103040001A057B681B680A43DA627B681B689A680A
:103050007B681B6822F400729A607B681B68996821
:103060007B6893F830305A027B681B680A439A6089
:103070007B681B689A687B681B6822F480629A6090
:103080007B681B6899687B685B699A027B681B6830
:103090000A439A6000BF1437BD465DF8047B704751
:1030A000002301400100000F80B485B000AF7860BC
:1030B00039607B6893F83C30012B01D1022331E069
:1030C0007B68012283F83C20194BFB60FB685B683E
:1030D00023F01F02FB685A60FB685A683B681B6854
:1030E0001A43FB685A60FB685B6823F44042FB6844
:1030F0005A60FB685A683B685B681A43FB685A6011
:10310000FB685B6823F47062FB685A60FB685A686E
:103110003B689B681A43FB685A607B68002283F80F
:103120003C20002318461437BD465DF8047B7047E9
:103130000023014080B584B000AF786039607B68BF
:10314000002B01D10123CCE0684B1B6803F00F0377
:103150003A689A420CD9654B3A68D2B21A70634BFE
:103160001B6803F00F033A689A4201D00123B8E0CC
:103170007B681B6803F00203002B20D07B681B6870
:1031800003F00403002B05D0594B9B68584A43F4C5
:10319000E05393607B681B6803F00803002B05D0A5
:1031A000534B9B68524A43F460439360504B9B6877
:1031B00023F0F0027B689B684D4913438B607B686A
:1031C0001B6803F00103002B44D07B685B68012B74
:1031D00007D1474B1B6803F40033002B19D101239F
:1031E0007FE07B685B68022B03D07B685B68032B06
:1031F00007D13F4B1B6803F00073002B09D101235B
:103200006FE03B4B1B6803F00203002B01D101234D
:1032100067E0374B9B6823F003027B685B683449A7
:1032200013438B6001F076F9F8600AE001F072F95F
:103230000246FB68D31A41F28832934201D9032334
:103240004FE02B4B9B6803F00C027B685B689B0094
:103250009A42EBD1254B1B6803F00F033A689A4260
:103260000CD2224B3A68D2B21A70204B1B6803F082
:103270000F033A689A4201D0012332E07B681B6851
:1032800003F00403002B08D0194B9B6823F4E05291
:103290007B68DB68164913438B607B681B6803F00F
:1032A0000803002B09D0124B9B6823F460427B6813
:1032B0001B69DB000E4913438B6000F055F8024692
:1032C0000B4B9B681B0903F00F030A49CB5C22FAE6
:1032D00003F3094A1360094B1B68184601F0D6F83E
:1032E000002318461037BD4680BD00BF003C024099
:1032F00000380240E008010808000020000000201B
:1033000080B400AF034B1B681846BD465DF8047BD4
:10331000704700BF0800002080B500AFFFF7F0FF46
:103320000246054B9B689B0A03F007030349CB5CED
:1033300022FA03F3184680BD00380240F008010865
:1033400080B500AFFFF7DCFF0246054B9B685B0BC7
:1033500003F007030349CB5C22FA03F3184680BD50
:1033600000380240F00801082DE9B04FAEB000AFC0
:103370000023C7F8AC300023C7F8B4300023C7F8E7
:10338000A8300023C7F8A4300023C7F8B030CB4BD7
:103390009B6803F00C030C2B00F2068201A252F88A
:1033A00023F000BFD9330008A9370008A937000867
:1033B000A9370008E1330008A9370008A937000839
:1033C000A9370008E9330008A9370008A937000821
:1033D000A9370008D9350008B94BC7F8B030E7E184
:1033E000B84BC7F8B030E3E1B44B5B6803F03F0380
:1033F000C7F8AC30B14B5B6803F48003002B71D08D
:10340000AE4B5B689B090022C7F89830C7F89C2038
:10341000D7F89830C3F30803C7F890300023C7F8F3
:103420009430D7E9244522462B464FF000004FF058
:103430000001590141EAD261500102460B46214682
:10344000511A3964294663EB01037B644FF0000293
:103450004FF00003D7E9108949468B01414643EA02
:10346000916341468A014146511AB963494663EB6B
:103470000103FB634FF000024FF00003D7E90E8910
:103480004946CB00414643EA51734146CA001046C3
:103490001946034622469B183B632B460A4642EBDD
:1034A00003037B634FF000024FF00003D7E90C45A4
:1034B00029464B02214643EAD15321464A0210468F
:1034C0001946D7F8AC300022C7F88830C7F88C20EE
:1034D000D7E92223FDF7F8FB02460B461346C7F84F
:1034E000B43067E0754B5B689B090022C7F88030F9
:1034F000C7F88420D7F88030C3F30803BB670023E4
:10350000FB67D7E91E4522462B464FF000004FF0DF
:103510000001590141EAD261500102460B462146A1
:10352000511AB962294663EB0103FB624FF00002B6
:103530004FF00003D7E90A8949468B01414643EA27
:10354000916341468A014146B2EB010A494663EB69
:10355000010B4FF000024FF000034FEACB0343EAA8
:103560005A734FEACA0292469B4623461AEB03035C
:103570003B622B464BEB03037B624FF000024FF0A4
:103580000003D7E9084529468B02214643EA9153B7
:1035900021468A0210461946D7F8AC3000223B6714
:1035A0007A67D7E91C23FDF78FFB02460B461346CB
:1035B000C7F8B430414B5B681B0C03F003030133C5
:1035C0005B00C7F8A830D7F8B420D7F8A830B2FB12
:1035D000F3F3C7F8B030EBE0384B5B6803F03F0320
:1035E000C7F8AC30354B5B6803F48003002B6BD01D
:1035F000324B5B689B090022BB66FA66BB6EC3F365
:1036000008033B6600237B66D7E9184522462B4614
:103610004FF000004FF00001590141EAD261500122
:1036200002460B462146511AB961294663EB010354
:10363000FB614FF000024FF00003D7E906AB59469B
:103640008B01514643EA916351468A015146B2EBE0
:103650000108594663EB01094FF000024FF00003E7
:103660004FEAC90343EA58734FEAC80290469946A5
:10367000234618EB03033B612B4649EB03037B61B5
:103680004FF000024FF00003D7E9044529464B02F2
:10369000214643EAD15321464A0210461946D7F83B
:1036A000AC300022BB65FA65D7E91623FDF70CFBA9
:1036B00002460B461346C7F8B43065E000380240B6
:1036C0000024F40000127A003D4B5B689B09002245
:1036D00018461146C0F308033B6500237B65D7E914
:1036E000148942464B464FF000004FF0000159014B
:1036F00041EAD261500102460B464146511AB96077
:10370000494663EB0103FB604FF000024FF00003FA
:10371000D7E902AB59468B01514643EA91635146C2
:103720008A015146541A594663EB01054FF00002D5
:103730004FF00003EB0043EA5473E20014461D46C9
:103740004346E3183B604B4645EB03037B604FF079
:1037500000024FF00003D7E9004529468B022146BD
:1037600043EA915321468A0210461946D7F8AC30F5
:103770000022BB64FA64D7E91223FDF7A5FA0246DA
:103780000B461346C7F8B4300D4B5B681B0F03F0B4
:103790000703C7F8A430D7F8B420D7F8A430B2FB99
:1037A000F3F3C7F8B03003E0064BC7F8B03000BF02
:1037B000D7F8B0301846B837BD46BDE8B08F00BF67
:1037C000003802400024F40080B586B000AF786075
:1037D0007B68002B01D101238DE27B681B6803F01D
:1037E0000103002B00F08380944B9B6803F00C03D3
:1037F000042B19D0914B9B6803F00C03082B06D1C6
:103800008E4B5B6803F48003B3F5800F0CD08B4BB9
:103810009B6803F00C030C2B12D1884B5B6803F4FC
:103820008003B3F5800F0BD1844B1B6803F4003386
:10383000002B5BD07B685B68002B57D101235AE2D9
:103840007B685B68B3F5803F06D17C4B1B687B4A85
:1038500043F4803313601DE07B685B68B3F5A02FF1
:103860000CD1764B1B68754A43F480231360734B6D
:103870001B68724A43F4803313600BE06F4B1B6884
:103880006E4A23F4803313606C4B1B686B4A23F43D
:10389000802313607B685B68002B13D000F03AFE36
:1038A000386108E000F036FE02463B69D31A642B0B
:1038B00001D903231FE2614B1B6803F40033002B83
:1038C000F0D014E000F026FE386108E000F022FE9F
:1038D00002463B69D31A642B01D903230BE2574BF1
:1038E0001B6803F40033002BF0D100E000BF7B68BD
:1038F0001B6803F00203002B6FD0504B9B6803F052
:103900000C03002B17D04D4B9B6803F00C03082BC6
:1039100005D14A4B5B6803F48003002B0BD0474B67
:103920009B6803F00C030C2B1CD1444B5B6803F425
:103930008003002B16D1414B1B6803F00203002BC0
:1039400005D07B68DB68012B01D00123D3E13B4B21
:103950001B6823F0F8027B681B69DB0037491343BF
:103960000B603AE07B68DB68002B20D0344B0122EF
:103970001A6000F0CFFD386108E000F0CBFD024690
:103980003B69D31A022B01D90323B4E12B4B1B68EB
:1039900003F00203002BF0D0284B1B6823F0F80241
:1039A0007B681B69DB00254913430B6015E0244B42
:1039B00000221A6000F0AEFD386108E000F0AAFDB8
:1039C00002463B69D31A022B01D9032393E11B4B17
:1039D0001B6803F00203002BF0D17B681B6803F027
:1039E0000803002B36D07B685B69002B16D0154B83
:1039F00001221A6000F08EFD386108E000F08AFDB7
:103A000002463B69D31A022B01D9032373E10B4B06
:103A10005B6F03F00203002BF0D01BE0094B002288
:103A20001A6000F077FD38610EE000F073FD024689
:103A30003B69D31A022B07D903235CE1003802400B
:103A400000004742800E47428A4B5B6F03F002033F
:103A5000002BEAD17B681B6803F00403002B00F005
:103A600097800023FB75834B1B6C03F08053002B66
:103A70000FD10023BB607F4B1B6C7E4A43F0805309
:103A800013647C4B1B6C03F08053BB60BB68012349
:103A9000FB75794B1B6803F48073002B18D1764BB0
:103AA0001B68754A43F48073136000F033FD38617E
:103AB00008E000F02FFD02463B69D31A022B01D922
:103AC000032318E16C4B1B6803F48073002BF0D0C8
:103AD0007B689B68012B06D1664B1B6F654A43F0E0
:103AE000010313671CE07B689B68052B0CD1614BBD
:103AF0001B6F604A43F0040313675E4B1B6F5D4A04
:103B000043F0010313670BE05A4B1B6F594A23F034
:103B100001031367574B1B6F564A23F004031367C7
:103B20007B689B68002B15D000F0F4FC38610AE03C
:103B300000F0F0FC02463B69D31A41F2883293420E
:103B400001D90323D7E04B4B1B6F03F00203002B7B
:103B5000EED014E000F0DEFC38610AE000F0DAFCA0
:103B600002463B69D31A41F28832934201D90323BA
:103B7000C1E0404B1B6F03F00203002BEED1FB7D35
:103B8000012B05D13B4B1B6C3A4A23F08053136445
:103B90007B689B69002B00F0AD80364B9B6803F07F
:103BA0000C03082B60D07B689B69022B45D1334BFB
:103BB00000221A6000F0AEFC386108E000F0AAFCB8
:103BC00002463B69D31A022B01D9032393E0294B08
:103BD0001B6803F00073002BF0D17B68DA697B6807
:103BE0001B6A1A437B685B6A9B011A437B689B6A6A
:103BF0005B08013B1B041A437B68DB6A1B061A4304
:103C00007B681B6B1B071B4913434B601B4B01223B
:103C10001A6000F07FFC386108E000F07BFC02468F
:103C20003B69D31A022B01D9032364E0114B1B68B3
:103C300003F00073002BF0D05CE0104B00221A6000
:103C400000F068FC386108E000F064FC02463B6963
:103C5000D31A022B01D903234DE0064B1B6803F056
:103C60000073002BF0D145E07B689B69012B07D1E5
:103C7000012340E0003802400070004060004742ED
:103C80001F4B5B68FB607B689B69012B30D0FB6836
:103C900003F480027B68DB699A4229D1FB6803F058
:103CA0003F027B681B6A9A4222D1FA6847F6C073CA
:103CB00013407A68526A9201934219D1FB6803F467
:103CC00040327B689B6A5B08013B1B049A420FD120
:103CD000FB6803F070627B68DB6A1B069A4207D1BF
:103CE000FB6803F0E0427B681B6B1B079A4201D024
:103CF000012300E0002318461837BD4680BD00BFF1
:103D00000038024080B489B000AF78603960002389
:103D10007B6100233B610023BB610023FB6165E104
:103D20000122FB6902FA03F37B613B681B687A6935
:103D300013403B613A697B699A4240F054813B6889
:103D40005B6803F00303012B05D03B685B6803F05D
:103D50000303022B30D17B689B68BB61FB695B006E
:103D6000032202FA03F3DB43BA691340BB613B68E9
:103D7000DA68FB695B0002FA03F3BA691343BB61BB
:103D80007B68BA699A607B685B68BB610122FB69EA
:103D900002FA03F3DB43BA691340BB613B685B681B
:103DA0001B0903F00102FB6902FA03F3BA6913432A
:103DB000BB617B68BA695A603B685B6803F00303C8
:103DC000032B17D07B68DB68BB61FB695B000322B8
:103DD00002FA03F3DB43BA691340BB613B689A689C
:103DE000FB695B0002FA03F3BA691343BB617B68AA
:103DF000BA69DA603B685B6803F00303022B23D1E6
:103E0000FB69DA087B68083253F82230BB61FB6932
:103E100003F007039B000F2202FA03F3DB43BA69A6
:103E20001340BB613B681A69FB6903F007039B0001
:103E300002FA03F3BA691343BB61FB69DA087B68D2
:103E40000832B96943F822107B681B68BB61FB69C3
:103E50005B00032202FA03F3DB43BA691340BB6140
:103E60003B685B6803F00302FB695B0002FA03F343
:103E7000BA691343BB617B68BA691A603B685B68C7
:103E800003F44033002B00F0AE800023FB605D4B59
:103E90005B6C5C4A43F4804353645A4B5B6C03F4A1
:103EA0008043FB60FB68584AFB699B08023352F869
:103EB0002330BB61FB6903F003039B000F2202FA6E
:103EC00003F3DB43BA691340BB617B684F4A9342FB
:103ED00025D07B684E4A93421FD07B684D4A93425F
:103EE00019D07B684C4A934213D07B684B4A93426B
:103EF0000DD07B684A4A934207D07B68494A934277
:103F000001D106230CE007230AE0052308E004237F
:103F100006E0032304E0022302E0012300E0002383
:103F2000FA6902F0030292009340BA691343BB613D
:103F30003549FB699B080233BA6941F823203A4BA3
:103F40009B68BB613B69DB43BA691340BB613B685B
:103F50005B6803F48013002B03D0BA693B691343F9
:103F6000BB61314ABB6993602F4BDB68BB613B6926
:103F7000DB43BA691340BB613B685B6803F4001321
:103F8000002B03D0BA693B691343BB61264ABB6966
:103F9000D360254B5B68BB613B69DB43BA69134067
:103FA000BB613B685B6803F40033002B03D0BA6944
:103FB0003B691343BB611C4ABB6953601A4B1B68C6
:103FC000BB613B69DB43BA691340BB613B685B681B
:103FD00003F48033002B03D0BA693B691343BB6100
:103FE000114ABB691360FB690133FB61FB690F2B4D
:103FF0007FF696AE00BF00BF2437BD465DF8047B58
:10400000704700BF00380240003801400000024005
:104010000004024000080240000C02400010024070
:104020000014024000180240003C014080B483B0FC
:1040300000AF78600B467B8013467B707B78002B4B
:1040400003D07A887B689A6103E07B881A047B68D6
:104050009A6100BF0C37BD465DF8047B704780B5A0
:1040600084B000AF78607B689B6DFB6000F052FA13
:10407000B8607B6893F83530DBB2022B08D07B68E0
:1040800080225A657B68002283F83420012352E0A5
:104090007B681B681A687B681B6822F016021A602E
:1040A0007B681B685A697B681B6822F080025A6132
:1040B0007B681B6C002B03D17B689B6C002B07D0AB
:1040C0007B681B681A687B681B6822F008021A600C
:1040D0007B681B681A687B681B6822F001021A6003
:1040E00013E000F017FA0246BB68D31A052B0CD96F
:1040F0007B6820225A657B68032283F835207B6821
:10410000002283F83420032315E07B681B681B68BA
:1041100003F00103002BE4D17B68DB6D3F229A4062
:10412000FB689A607B68012283F835207B68002257
:1041300083F83420002318461037BD4680BD80B474
:1041400083B000AF78607B6893F83530DBB2022B28
:1041500004D07B6880225A6501230CE07B6805222D
:1041600083F835207B681B681A687B681B6822F01F
:1041700001021A60002318460C37BD465DF8047B27
:104180007047000080B582B000AF00237B60002341
:104190003B60204B1B6C1F4A43F0805313641D4B44
:1041A0001B6C03F080533B603B681B4B01221A6081
:1041B00000F0B0F9786009E000F0ACF902467B68E5
:1041C000D31AB3F57A7F01D903231FE0134B5B6841
:1041D00003F48033B3F5803FEED1114B01221A6016
:1041E00000F098F9786009E000F094F902467B68E5
:1041F000D31AB3F57A7F01D9032307E0074B5B6835
:1042000003F40033B3F5003FEED10023184608371E
:10421000BD4680BD0038024040000E4200700040A4
:1042200044000E4280B485B000AF78607B6803F034
:104230000703FB600C4BDB68BB60BA684FF6FF03FB
:104240001340BB60FB681A02BB68134343F0BF63B3
:1042500043F40033BB60044ABB68D36000BF14372B
:10426000BD465DF8047B704700ED00E080B400AF10
:10427000044BDB681B0A03F007031846BD465DF8D4
:10428000047B704700ED00E080B483B000AF0346CC
:10429000FB7197F90730002B0BDBFB7903F01F0252
:1042A000074997F907305B09012000FA02F241F84B
:1042B000232000BF0C37BD465DF8047B704700BF6C
:1042C00000E100E080B483B000AF03463960FB71C9
:1042D00097F90730002B0ADB3B68DAB20C4997F9F3
:1042E00007301201D2B20B4483F800230AE03B6886
:1042F000DAB20849FB7903F00F03043B1201D2B292
:104300000B441A7600BF0C37BD465DF8047B70473E
:1043100000E100E000ED00E080B489B000AFF8609B
:10432000B9607A60FB6803F00703FB61FB69C3F1C6
:104330000703042B28BF0423BB61FB690433062B4E
:1043400002D9FB69033B00E000237B614FF0FF32A1
:10435000BB6902FA03F3DA43BB681A407B699A40EF
:104360004FF0FF317B6901FA03F3D9437B680B40BF
:10437000134318462437BD465DF8047B70470000A0
:1043800080B582B000AF78607B68013BB3F1807F7D
:1043900001D301230FE00A4A7B68013B53600F21E0
:1043A0004FF0FF30FFF78EFF054B00229A60044B61
:1043B00007221A60002318460837BD4680BD00BF9B
:1043C00010E000E080B582B000AF78607868FFF759
:1043D00029FF00BF0837BD4680BD80B586B000AF5D
:1043E0000346B9607A60FB7300237B61FFF73EFFF1
:1043F00078617A68B9687869FFF78EFF024697F9A5
:104400000F3011461846FFF75DFF00BF1837BD4655
:1044100080BD80B582B000AF0346FB7197F90730CD
:104420001846FFF731FF00BF0837BD4680BD80B595
:1044300082B000AF78607868FFF7A2FF03461846A5
:104440000837BD4680BD000080B500AF0E4B1B682D
:104450000D4A43F4007313600B4B1B680A4A43F484
:1044600080631360084B1B68074A43F48073136032
:104470000320FFF7A7FF002000F008F8FEF710FA6E
:104480000023184680BD00BF003C024080B582B0CA
:1044900000AF7860124B1A68124B1B7819464FF424
:1044A0007A73B3FBF1F3B2FBF3F31846FFF7BFFFE8
:1044B0000346002B01D001230EE07B680F2B0AD8A6
:1044C000002279684FF0FF30FFF787FF064A7B68CC
:1044D0001360002300E0012318460837BD4680BD65
:1044E00008000020040000200000002080B400AF7D
:1044F000064B1B781A46064B1B681344044A13608C
:1045000000BFBD465DF8047B704700BF040000207B
:104510008094002080B400AF034B1B681846BD4652
:104520005DF8047B704700BF8094002080B584B0A4
:1045300000AF7860FFF7EEFFB8607B68FB60FB6858
:10454000B3F1FF3F05D00A4B1B781A46FB681344B2
:10455000FB6000BFFFF7DEFF0246BB68D31AFA68B4
:104560009A42F7D800BF00BF1037BD4680BD00BFDC
:104570000400002080B584B000AF78607B68002B19
:1045800001D10123EDE07B6893F82030DBB2002BF2
:1045900002D17868FDF740F97B681B681A687B6870
:1045A0001B6842F001021A60FFF7B4FFF86012E0E6
:1045B000FFF7B0FF0246FB68D31A0A2B0BD97B68C2
:1045C0005B6A43F400327B685A627B68052283F899
:1045D00020200123C5E07B681B685B6803F00103B2
:1045E000002BE5D07B681B681A687B681B6822F08B
:1045F00002021A60FFF78EFFF86012E0FFF78AFFF1
:104600000246FB68D31A0A2B0BD97B685B6A43F41A
:1046100000327B685A627B68052283F820200123E0
:104620009FE07B681B685B6803F00203002BE5D109
:104630007B681B7E012B08D17B681B681A687B682E
:104640001B6842F080021A6007E07B681B681A68EA
:104650007B681B6822F080021A607B685B7E012BFE
:1046600008D17B681B681A687B681B6842F04002AF
:104670001A6007E07B681B681A687B681B6822F079
:1046800040021A607B689B7E012B08D17B681B6807
:104690001A687B681B6842F020021A6007E07B689A
:1046A0001B681A687B681B6822F020021A607B680E
:1046B000DB7E012B08D17B681B681A687B681B684E
:1046C00022F010021A6007E07B681B681A687B689A
:1046D0001B6842F010021A607B681B7F012B08D117
:1046E0007B681B681A687B681B6842F008021A60C6
:1046F00007E07B681B681A687B681B6822F0080269
:104700001A607B685B7F012B08D17B681B681A6885
:104710007B681B6842F004021A6007E07B681B6834
:104720001A687B681B6822F004021A607B689A682A
:104730007B68DB681A437B681B691A437B685B698B
:1047400042EA03017B685B685A1E7B681B680A4368
:10475000DA617B6800225A627B68012283F820209C
:10476000002318461037BD4680BD000080B487B0D6
:1047700000AF786039607B681B687B617B6893F869
:104780002030FB74FB7C012B03D0FB7C022B40F020
:10479000BE80654B7B617B69D3F8003243F0010238
:1047A0007B69C3F800227B69D3F8003223F47C5282
:1047B0007B69C3F800227B69D3F800223B685B6AFF
:1047C0001B021A437B69C3F800223B685B6903F054
:1047D0001F03012202FA03F3FB607B69D3F81C225A
:1047E000FB68DB431A407B69C3F81C223B68DB692A
:1047F000002B23D17B69D3F80C22FB68DB431A40E2
:104800007B69C3F80C223B68DB6819043B685B6872
:104810009BB23A68526919437B69483243F83210B7
:104820003B689B6819043B681B689AB23B685B69EC
:104830000A4379694833DB000B445A603B68DB6903
:10484000012B22D17B69D3F80C22FB681A437B69C8
:10485000C3F80C223B681B6819043B685B689BB279
:104860003A68526919437B69483243F832103B6811
:104870009B6819043B68DB689AB23B685B690A4332
:1048800079694833DB000B445A603B689B69002B15
:1048900009D17B69D3F80422FB68DB431A407B69AA
:1048A000C3F8042207E07B69D3F80422FB681A43AB
:1048B0007B69C3F804223B681B69002B09D17B6923
:1048C000D3F81422FB68DB431A407B69C3F8142237
:1048D00007E07B69D3F81422FB681A437B69C3F8AD
:1048E00014223B681B6A012B07D17B69D3F81C2279
:1048F000FB681A437B69C3F81C227B69D3F800323A
:1049000023F001027B69C3F80022002306E07B68E4
:104910005B6A43F480227B685A62012318461C3785
:10492000BD465DF8047B70470064004080B584B0EC
:1049300000AF78607B6893F82030DBB2012B2ED17A
:104940007B68022283F820207B681B681A687B68DA
:104950001B6822F001021A60FFF7DCFDF86012E02C
:10496000FFF7D8FD0246FB68D31A0A2B0BD97B68E8
:104970005B6A43F400327B685A627B68052283F8E5
:104980002020012312E07B681B685B6803F00103B1
:10499000002BE5D17B6800225A62002306E07B6889
:1049A0005B6A43F400227B685A6201231846103781
:1049B000BD4680BD80B489B000AFF860B9607A6050
:1049C0003B60FB6893F82030FB77FB681B689B68B3
:1049D000BB61FB7F012B03D0FB7F022B40F0AD803E
:1049E000BB6903F08063002B0AD1BB6903F000634D
:1049F000002B05D1BB6903F08053002B00F095809C
:104A0000BB691B0E03F003037B6101227B699A40A3
:104A10003B681A60BB689B68002B0DD1BB681B68A4
:104A20005A05BB68DB68F96809681A437B69183363
:104A30001B010B441A600FE0BB685B68DA00BB68BF
:104A40009B681A43BB68DB68F96809681A437B698D
:104A500018331B010B441A60FB681968BB681A699C
:104A60007B6918331B010B4404331A60BB681B7D40
:104A7000012B11D1FB681A687B6918331B011344A1
:104A800004331B68FA68116843F480727B69183339
:104A90001B010B4404331A607B6807331B781A062A
:104AA0007B6806331B781B041A437B6805331B782D
:104AB0001B0213437A68043212781046FA681168B0
:104AC00043EA00027B691B010B4403F5C6731A60BD
:104AD0007B6803331B781A067B6802331B781B0440
:104AE0001A437B6801331B781B0213437A681278E0
:104AF0001046FA68116843EA00027B691B010B4407
:104B000003F5C4731A60FB681A687B6918331B01CC
:104B100013441B68FA68116843F001027B6918337B
:104B20001B010B441A6000230EE0FB685B6A43F430
:104B30000012FB685A62012306E0FB685B6A43F4DB
:104B40008022FB685A62012318462437BD465DF86F
:104B5000047B704780B487B000AFF860B9607A60BA
:104B60003B60FB6893F82030FB75FB7D012B03D085
:104B7000FB7D022B40F00381BB68002B0ED1FB684C
:104B80001B68DB6803F00303002B16D1FB685B6A2C
:104B900043F40012FB685A620123F7E0FB681B68CC
:104BA0001B6903F00303002B07D1FB685B6A43F426
:104BB0000012FB685A620123E8E0FB681A68BB68D0
:104BC0001B331B0113441B6803F004027B689A60CB
:104BD0007B689B68002B0CD1FB681A68BB681B3391
:104BE0001B0113441B685B0DC3F30A027B681A6048
:104BF0000BE0FB681A68BB681B331B0113441B687E
:104C0000DB0823F060427B685A60FB681A68BB6867
:104C10001B331B0113441B6803F002027B68DA603C
:104C2000FB681A68BB681B331B01134404331B6801
:104C300003F00803002B03D07B6808221A610BE005
:104C4000FB681A68BB681B331B01134404331B68E1
:104C500003F00F027B681A61FB681A68BB681B339C
:104C60001B01134404331B681B0ADAB27B689A6188
:104C7000FB681A68BB681B331B01134404331B68B1
:104C80001B0C9AB27B685A61FB681A68BB681B01EF
:104C9000134403F5DC731B68DAB23B681A70FB68D7
:104CA0001A68BB681B01134403F5DC731B681A0AFE
:104CB0003B680133D2B21A70FB681A68BB681B01EB
:104CC000134403F5DC731B681A0C3B680233D2B241
:104CD0001A70FB681A68BB681B01134403F5DC7388
:104CE0001B681A0E3B680333D2B21A70FB681A684D
:104CF000BB681B01134403F5DE731A683B68043379
:104D0000D2B21A70FB681A68BB681B01134403F522
:104D1000DE731B681A0A3B680533D2B21A70FB684F
:104D20001A68BB681B01134403F5DE731B681A0C79
:104D30003B680633D2B21A70FB681A68BB681B0165
:104D4000134403F5DE731B681A0E3B680733D2B2B7
:104D50001A70BB68002B08D1FB681B68DA68FB6817
:104D60001B6842F02002DA6007E0FB681B681A69E2
:104D7000FB681B6842F020021A61002306E0FB6812
:104D80005B6A43F48022FB685A62012318461C3791
:104D9000BD465DF8047B704780B58AB000AF78608F
:104DA00000237B627B681B685B693B627B681B68D6
:104DB0005B68FB617B681B689B68BB617B681B68E9
:104DC000DB687B617B681B681B693B617B681B68D8
:104DD0009B69FB603B6A03F00103002B7CD0BB693D
:104DE00003F00103002B23D07B681B6801229A602B
:104DF000BB6903F00203002B03D0786800F083F94D
:104E000016E0BB6903F00403002B04D07B6A43F473
:104E100000637B620CE0BB6903F00803002B04D045
:104E20007B6A43F480537B6202E0786800F089F982
:104E3000BB6903F48073002B24D07B681B684FF49C
:104E400080729A60BB6903F40073002B03D078680A
:104E500000F063F916E0BB6903F48063002B04D013
:104E60007B6A43F400537B620CE0BB6903F400638C
:104E7000002B04D07B6A43F480437B6202E07868B5
:104E800000F069F9BB6903F48033002B24D07B6800
:104E90001B684FF480329A60BB6903F40033002B27
:104EA00003D0786800F043F916E0BB6903F480236F
:104EB000002B04D07B6A43F400437B620CE0BB69A7
:104EC00003F40023002B04D07B6A43F480337B621D
:104ED00002E0786800F049F93B6A03F00803002B10
:104EE0000CD07B6903F01003002B07D07B6A43F4DE
:104EF00000737B627B681B681022DA603B6A03F0F8
:104F00000403002B0BD07B6903F00803002B06D0B1
:104F10007B681B680822DA60786800F03AF93B6A1F
:104F200003F00203002B09D07B681B68DB6803F0E9
:104F30000303002B02D0786800F021F93B6A03F0EC
:104F40004003002B0CD03B6903F01003002B07D06B
:104F50007B6A43F480637B627B681B6810221A6162
:104F60003B6A03F02003002B0BD03B6903F00803DE
:104F7000002B06D07B681B6808221A61786800F055
:104F80001CF93B6A03F01003002B09D07B681B68F7
:104F90001B6903F00303002B02D0786800F003F9CB
:104FA0003B6A03F40033002B0BD0FB6903F01003C2
:104FB000002B06D07B681B6810225A60786800F0CE
:104FC00006F93B6A03F48033002B0BD0FB6903F036
:104FD0000803002B06D07B681B6808225A6078689B
:104FE00000F0FFF83B6A03F40043002B7BD0FB6921
:104FF00003F00403002B72D03B6A03F48073002B90
:1050000008D0FB6803F00103002B03D07B6A43F058
:1050100001037B623B6A03F40073002B08D0FB683A
:1050200003F00203002B03D07B6A43F002037B6290
:105030003B6A03F48063002B08D0FB6803F0040391
:10504000002B03D07B6A43F004037B623B6A03F4CA
:105050000063002B43D0FB6803F07003002B3ED0AD
:10506000FB6803F07003602B2BD0602B2ED8502BE5
:1050700022D0502B2AD8402B19D0402B26D8302BA9
:1050800010D0302B22D8102B02D0202B05D01DE0C1
:105090007B6A43F008037B6219E07B6A43F01003EC
:1050A0007B6214E07B6A43F020037B620FE07B6A43
:1050B00043F040037B620AE07B6A43F080037B623B
:1050C00005E07B6A43F480737B6200E000BF7B688D
:1050D0001B689A697B681B6822F070029A617B6882
:1050E0001B6804225A607B6A002B08D07B685A6ACE
:1050F0007B6A1A437B685A62786800F07CF800BFCC
:105100002837BD4680BD80B483B000AF786000BF53
:105110000C37BD465DF8047B704780B483B000AFA8
:10512000786000BF0C37BD465DF8047B704780B4E3
:1051300083B000AF786000BF0C37BD465DF8047BDC
:10514000704780B483B000AF786000BF0C37BD46B5
:105150005DF8047B704780B483B000AF786000BF17
:105160000C37BD465DF8047B704780B483B000AF58
:10517000786000BF0C37BD465DF8047B704780B493
:1051800083B000AF786000BF0C37BD465DF8047B8C
:10519000704780B483B000AF786000BF0C37BD4665
:1051A0005DF8047B704780B483B000AF786000BFC7
:1051B0000C37BD465DF8047B704780B483B000AF08
:1051C000786000BF0C37BD465DF8047B704780B443
:1051D00083B000AF786000BF0C37BD465DF8047B3C
:1051E000704780B483B000AF786000BF0C37BD4615
:1051F0005DF8047B704780B483B000AF786000BF77
:105200000C37BD465DF8047B704780B582B000AFB7
:1052100078607B68002B01D101237BE07B685B6AAF
:10522000002B08D17B685B68B3F5827F09D07B686F
:105230000022DA6105E07B6800221A617B680022A7
:105240005A617B6800229A627B6893F85130DBB226
:10525000002B06D17B68002283F850207868FCF789
:105260001BFD7B68022283F851207B681B681A684B
:105270007B681B6822F040021A607B685B6803F45D
:1052800082727B689B6803F404431A437B68DB6883
:1052900003F400631A437B681B6903F002031A439B
:1052A0007B685B6903F001031A437B689B6903F425
:1052B00000731A437B68DB6903F038031A437B6889
:1052C0001B6A03F0800342EA03017B689B6A03F4D4
:1052D00000527B681B680A431A607B689B691B0C41
:1052E00003F004017B685B6A03F010027B681B68B3
:1052F0000A435A607B681B68DA697B681B6822F482
:105300000062DA617B6800225A657B68012283F8BB
:105310005120002318460837BD4680BD80B58AB0AD
:1053200000AFF860B9607A607B8001237B62FFF791
:10533000F1F83862FB6893F85130FB77FB685B68E3
:10534000BB617B88FB82FB7F012B0CD0BB69B3F573
:10535000827F06D1FB689B68002B02D1FB7F042B68
:1053600001D002237FE1BB68002B05D07B68002BB6
:1053700002D07B88002B01D1012374E1FB6893F8F4
:105380005030012B01D102236DE1FB68012283F82B
:105390005020FB6893F85130DBB2042B03D0FB683C
:1053A000052283F85120FB6800225A65FB687A6861
:1053B0009A63FB687A88DA87FB687A889A87FB6841
:1053C000BA681A63FB687A88DA86FB687A889A86F4
:1053D000FB6800221A64FB6800225A64FB681B68A1
:1053E0001B6803F04003402B07D0FB681B681A685A
:1053F000FB681B6842F040021A60FB68DB68B3F58B
:10540000006F7ED1FB685B68002B02D0FB8A012B0A
:105410006CD1FB681B6B1A88FB681B68DA60FB6841
:105420001B6B9A1CFB681A63FB68DB8E9BB2013B0B
:105430009AB2FB68DA8659E0FB681B689B6803F048
:105440000203022B1BD1FB68DB8E9BB2002B16D014
:105450007B6A012B13D1FB681B6B1A88FB681B68E6
:10546000DA60FB681B6B9A1CFB681A63FB68DB8EB7
:105470009BB2013B9AB2FB68DA8600237B62FB6831
:105480001B689B6803F00103012B19D1FB68DB8FBC
:105490009BB2002B14D0FB681B68DA68FB689B6B1F
:1054A00092B21A80FB689B6B9A1CFB689A63FB683C
:1054B000DB8F9BB2013B9AB2FB68DA8701237B62E8
:1054C000FFF728F802463B6AD31A3A6B9A420DD886
:1054D0003B6BB3F1FF3F09D0FB68012283F85120F9
:1054E000FB68002283F850200323BCE0FB68DB8EBE
:1054F0009BB2002BA0D1FB68DB8F9BB2002B9BD112
:1055000082E0FB685B68002B02D0FB8A012B71D123
:10551000FB681A6BFB681B680C3312781A70FB6807
:105520001B6B5A1CFB681A63FB68DB8E9BB2013B4A
:105530009AB2FB68DA865DE0FB681B689B6803F043
:105540000203022B1CD1FB68DB8E9BB2002B17D011
:105550007B6A012B14D1FB681A6BFB681B680C3348
:1055600012781A70FB681B6B5A1CFB681A63FB6885
:10557000DB8E9BB2013B9AB2FB68DA8600237B622A
:10558000FB681B689B6803F00103012B19D1FB68C2
:10559000DB8F9BB2002B14D0FB681B68DA68FB68BA
:1055A0009B6BD2B21A70FB689B6B5A1CFB689A63A8
:1055B000FB68DB8F9BB2013B9AB2FB68DA87012361
:1055C0007B62FEF7A7FF02463B6AD31A3A6B9A4208
:1055D00003D83B6BB3F1FF3F02D13B6B002B09D1EA
:1055E000FB68012283F85120FB68002283F85020D9
:1055F000032338E0FB68DB8E9BB2002B9CD1FB6859
:10560000DB8F9BB2002B97D13A6A396BF86800F0B8
:10561000B7F80346002B08D0FB6820225A65FB68C8
:10562000002283F8502001231DE0FB689B68002BBB
:105630000AD100233B61FB681B68DB683B61FB68A8
:105640001B689B683B613B69FB68012283F8512022
:10565000FB68002283F85020FB685B6D002B01D0B3
:10566000012300E0002318462837BD4680BD000016
:1056700080B588B000AFF860B9603B601346FB713D
:10568000FEF748FF0246BB6A9B1A3A681344FB6167
:10569000FEF740FFB861394B1B685B011B0DFA69CF
:1056A00002FB03F37B6154E03B68B3F1FF3F50D052
:1056B000FEF730FF0246BB69D31AFA699A4202D953
:1056C000FB69002B3DD1FB681B685A68FB681B68AF
:1056D00022F0E0025A60FB685B68B3F5827F11D16B
:1056E000FB689B68B3F5004F04D0FB689B68B3F57B
:1056F000806F07D1FB681B681A68FB681B6822F083
:1057000040021A60FB689B6AB3F5005F0FD1FB682B
:105710001B681A68FB681B6822F400521A60FB6859
:105720001B681A68FB681B6842F400521A60FB6829
:10573000012283F85120FB68002283F850200323C4
:1057400017E07B69002B01D10023FB617B69013BE2
:105750007B61FB681B689A68BB681340BA689A4211
:105760000CBF01230023DBB21A46FB799A429BD17E
:10577000002318462037BD4680BD00BF080000202A
:1057800080B588B002AFF860B9607A607B6800933A
:10579000BB6801220221F868FFF76AFF0346002B6D
:1057A00007D0FB685B6D43F02002FB685A6503235A
:1057B00032E01B4B1B681B4AA2FB03235B0D4FF41B
:1057C0007A7202FB03F37B61FB685B68B3F5827F4F
:1057D00012D17B680093BB6800228021F868FFF734
:1057E00047FF0346002B16D0FB685B6D43F0200299
:1057F000FB685A6503230FE07B69002B0AD07B69A5
:10580000013B7B61FB681B689B6803F08003802B76
:10581000F2D000E000BF002318461837BD4680BD17
:1058200008000020819F5E1680B582B000AF7860CE
:105830007B68002B01D1012341E07B6893F83D3068
:10584000DBB2002B06D17B68002283F83C2078680D
:10585000FCF7A6FB7B68022283F83D207B681A6870
:105860007B6804331946104600F06CFC7B6801220B
:1058700083F846207B68012283F83E207B68012262
:1058800083F83F207B68012283F840207B68012257
:1058900083F841207B68012283F842207B68012243
:1058A00083F843207B68012283F844207B6801222F
:1058B00083F845207B68012283F83D2000231846A9
:1058C0000837BD4680BD000080B485B000AF786069
:1058D0007B6893F83D30DBB2012B01D001234EE011
:1058E0007B68022283F83D207B681B68DA687B684E
:1058F0001B6842F00102DA607B681B68234A93420E
:1059000022D07B681B68B3F1804F1DD07B681B6879
:105910001F4A934218D07B681B681E4A934213D0DB
:105920007B681B681C4A93420ED07B681B681B4A2D
:10593000934209D07B681B68194A934204D07B6864
:105940001B68184A934211D17B681B689B6803F05F
:105950000703FB60FB68062B10D07B681B681A6886
:105960007B681B6842F001021A6007E07B681B68D5
:105970001A687B681B6842F001021A60002318460F
:105980001437BD465DF8047B704700BF000001403E
:105990000004004000080040000C004000040140EA
:1059A000004001400018004080B582B000AF786030
:1059B0007B68002B01D1012341E07B6893F83D30E7
:1059C000DBB2002B06D17B68002283F83C2078688C
:1059D00000F039F87B68022283F83D207B681A6862
:1059E0007B6804331946104600F0ACFB7B6801224B
:1059F00083F846207B68012283F83E207B680122E1
:105A000083F83F207B68012283F840207B680122D5
:105A100083F841207B68012283F842207B680122C1
:105A200083F843207B68012283F844207B680122AD
:105A300083F845207B68012283F83D200023184627
:105A40000837BD4680BD80B483B000AF786000BF2A
:105A50000C37BD465DF8047B7047000080B584B00C
:105A600000AF786039603B68002B09D17B6893F800
:105A70003E30DBB2012B14BF01230023DBB222E056
:105A80003B68042B09D17B6893F83F30DBB2012BD4
:105A900014BF01230023DBB215E03B68082B09D1BA
:105AA0007B6893F84030DBB2012B14BF0123002345
:105AB000DBB208E07B6893F84130DBB2012B14BF06
:105AC00001230023DBB2002B01D001237CE03B68E3
:105AD000002B04D17B68022283F83E2013E03B6850
